:03000000020006F5
:20005F00752300752400752500752600752700752A04752B02752C03752D03753A00753D90
:20007F0001753E00753F10754010754101754200754310754410754500754600754701757E
:20009F004800754901754A00754B00754C00754D00754EFF754F0075500075510075520060
:2000BF00755300755400755500755600755700755800755900755A00755B00755C00755D52
:2000DF0000755E00755F007560FF7561007562007563007564007565007566007567007522
:2000FF006800756900756A00756B00756C00756D00756E00756F0075700075710002000382
:0300030002011FD8
:20011F0012142712161EAF238FF005F07401800225E0D5F0FBFFF4F590E5237005120173B0
:20013F0080E47401B5230512020980DA7402B523051205AF80D07403B5230512095580C600
:20015F007404B52305120F4380BC7405B523B712128580B220B20C90000A1212F220B20345
:20017F0075260120A10C90000A1212F220A103752701750B0375820212153D90178175F079
:20019F00801214E7750B0A75820312153D90178C75F0801214E7750B0575820412153DE5DD
:2001BF0026600B90179A75F0801214E780099017AB75F0801214E7750B0575820512153DAA
:2001DF00E527600B9017BC75F0801214E780099017CD75F0801214E7E526600DE527600958
:2001FF0075230175260075270022121512750B0375820212153D9017DE75F0801214E775E9
:20021F003A0075360075370075350075340074FE253450030205AB753A00753300C3E533D9
:20023F0095344003020305753101753200E53A60030202F5AE327F00E5342534FD242A04A0
:20025F00F987047B00EC2EFEEB3FFF1EBEFF011FC374079E74808FF063F08095F0406CAE43
:20027F00317F00ED242AF987058D037C00EB2EFEEC3FFF1EBEFF011FC374089E74808FF057
:20029F0063F08095F04044098711E5332533FF243DF98712098713EF242AF9871409871547
:2002BF0085320F8D10853182120C94AF82BF01028019E5342534243DF8A631E5342534240E
:2002DF003DFF04F8A632753A01800B053274F82532400302024C0531E53124F74003020279
:2002FF0049053302023C753501750B0375820312153D9017EF75F0801214E7AF3474302F54
:20031F00F582121496E5342534FF243DF98706098705EF242AF9E72E14F51009E72D14F514
:20033F00118D0F7512008E82120DBCE535700302022D750B0375820412153D9017F875F0DB
:20035F00801214E7E5342534243D04F9870774302FF582121496750B0375820512153D901A
:20037F00180275F0801214E7E5342534243DF9870774302FF5821214961212A6AE82AF83C6
:20039F00EEF529700302054C90000A1212F21212A6AE82AF83AC297D00EEB50406EFB505E8
:2003BF0002800302054CE5342534FF243DF987370987367401B5291CEF243D04F9E77009DB
:2003DF00EF243D04F987068009EF243D04F9E7FF14FE8E367402B52942E5342534FF243D2A
:2003FF0004F987067D00EF242A04F987047B00EC2EFEEB3DFD1EBEFF011DC3EE9407ED64C4
:20041F0080948092004009EF243D04F987068009EF243D04F9E7FF04FE8E367405B5291883
:20043F00E5342534243DF9E7FF24FE920040048F068003EF14FE8E377406B52937E5342548
:20045F0034FF243DF987068E047D00EF242AF987077B00EF2CFCEB3DFD1CBCFF011DC3EC35
:20047F009408ED64809480920040048E078003EE04FF8F37753000C3E5309534503C753AB6
:20049F0000E5342534242AF98710098711E5302530FF243DF98712098713EF242AF987147C
:2004BF0009871585360F853782120C94AF82BF0105753A018004053080BD7401B53A067543
:2004DF003A0002034AE5342534FF243DF98706098705EF242AF9E72E14F51009E72D14F5FD
:2004FF00118D0F7512008E82120D3EE5342534243D04F8A636E5342534243DF8A637E534D0
:20051F002534FF243DF98706098705EF242AF9E72E14F51009E72D14F5118D0F7512008E9C
:20053F0082120DBC7529009000641212F2752E01E52E244EF9870E852E0D7582021215DB25
:20055F00052EE52E24F750E830B20302034A90000A1212F230B20302034AE534FF04F53486
:20057F00E4F535F521F522D2B7121327C2B71213270521E4B521020522C3E521944CE522CE
:20059F006480948240E130B2FD02034A75230222121512750B0375820212153D90180C75F5
:2005BF00F0801214E7753A0075360075370075350075340074FE25345003020951753A001D
:2005DF00753300C3E533953440030206AB753101753200E53A600302069BAE327F00E534CF
:2005FF002534FD242A04F987047B00EC2EFEEB3FFF1EBEFF011FC374079E74808FF063F057
:20061F008095F0406CAE317F00ED242AF987058D037C00EB2EFEEC3FFF1EBEFF011FC3746D
:20063F00089E74808FF063F08095F04044098711E5332533FF2441F98712098713EF242ABF
:20065F00F9871409871585320F8D10853182120C94AF82BF01028019E53425342441F8A6F4
:20067F0031E53425342441FF04F8A632753A01800B053274F8253240030205F20531E531C3
:20069F0024F740030205EF05330205E2753501750B0375820312153D9017EF75F080121499
:2006BF00E7AF3474302FF582121496E5342534FF2441F98706098705EF242AF9E72E14F506
:2006DF001009E72D14F5118D0F7512018E82120DBCE53570030205D3750B03758204121599
:2006FF003D9017F875F0801214E7E5342534244104F9870774302FF582121496750B0375AD
:20071F00820512153D90180275F0801214E7E53425342441F9870774302FF58212149612BD
:20073F0012A6AE82AF83EEF52970030208F290000A1212F21212A6AE82AF83AC297D00EEE9
:20075F00B50406EFB5050280030208F2E5342534FF2441F987370987367403B5291CEF24BA
:20077F004104F9E77009EF244104F987068009EF244104F9E7FF14FE8E367404B52942E5CB
:20079F00342534FF244104F987067D00EF242A04F987047B00EC2EFEEB3DFD1EBEFF011DCC
:2007BF00C3EE9407ED6480948092014009EF244104F987068009EF244104F9E7FF04FE8EDF
:2007DF00367407B52918E53425342441F9E7FF24FE920140048F068003EF14FE8E3774084A
:2007FF00B52937E5342534FF2441F987068E047D00EF242AF987077B00EF2CFCEB3DFD1CC3
:20081F00BCFF011DC3EC9408ED64809480920140048E078003EE04FF8F37753000C3E5308D
:20083F009534503C753A00E5342534242AF98710098711E5302530FF2441F98712098713A1
:20085F00EF242AF9871409871585360F853782120C94AF82BF0105753A018004053080BDAD
:20087F007401B53A06753A000206F0E5342534FF2441F98706098705EF242AF9E72E14F503
:20089F001009E72D14F5118D0F7512018E82120D3EE5342534244104F8A636E5342534241C
:2008BF0041F8A637E5342534FF2441F98706098705EF242AF9E72E14F51009E72D14F51177
:2008DF008D0F7512018E82120DBC7529009000641212F2752E01E52E2469F9870E852E0DB0
:2008FF007582041215DB052EE52E24F750E830A1030206F090000A1212F230A1030206F0FB
:20091F00E534FF04F534E4F535F521F522D2B7121327C2B71213270521E4B521020522C3D2
:20093F00E521944CE5226480948240E130A1FD0206F075230322753C01121512750B03752A
:20095F00820212153D90181D75F0801214E7AF3C74302FF58212149690182575F080121410
:20097F00E7750B0475820312153D90182C75F0801214E7750B0475820412153D9018367593
:20099F00F0801214E7750B0475820512153D90184075F0801214E7E5246003020C8CE53CD6
:2009BF00253C2445F98739098738750B3775820312153DAF3874302FF582121496750B3714
:2009DF0075820412153DAF3974302FF582121496750B4675820512153DE53C244BF987076E
:2009FF007E00750F0A8E108F828E83121745AE8274302EF582121496E53C244BF987077ED4
:200A1F0000750F0A8E108F828E8312170FAE8274302EF5821214961212A6AE82AF83EEF5ED
:200A3F00297003020AF190000A1212F21212A6AE82AF83AC297D00ECB50606EDB5070280F8
:200A5F0003020AF18539378538367401B52915E5387004FEFF8009AD381DEDFE3395E0FF7C
:200A7F008E3680547402B52916C3E538940792024004AF388005E538FE04FF8F3680397486
:200A9F0005B5291BE53924FE920240067E017F008009AD391DEDFE3395E0FF8E3780197431
:200ABF0006B52914C3E539940892024004AF398005E539FE04FF8F37853739853638E53C6F
:200ADF00253C2445F8A639E53C253C2445FF04F8A63820B22390000A1212F220B21AE53CE0
:200AFF00253C2445F8A639E53C253C2445FF04F8A638752304020C8C30B303020BFC9000BD
:200B1F000A1212F230B303020BFC85380F751002853982120EB2E5826027E4F521F522D271
:200B3F00B7121319C2B71213190521E4B521020522C3E521940BE5226480948240E102094C
:200B5F00B685380F853910853811751202853982120DBC85380F751001853982120EB2E56B
:200B7F0082703DF521F522D2B7121319C2B71213190521E4B521020522C3E521940BE52204
:200B9F006480948240E1E53C253C2445F8A639E53C253C2445FF04F8A638752304020C8C5F
:200BBF00E4F521F522D2B7121327C2B71213270521E4B521020522C3E521944CE5226480CE
:200BDF00948240E1E53C244BF907E7E53C244BF98707BF11004006853C24020C8C752E01F8
:200BFF00E539B52E13AF388FF005F07401800225E0D5F0FBF5288003752800E52E2457F9E7
:200C1F008707E5284FF50E852E0D7582011215DB052EE52E24F750C89000641212F2752EE8
:200C3F0001752800E52EB53913AF388FF005F07401800225E0D5F0FBF5288003752800E5AA
:200C5F002E2469F98707E52E2457F9E75F4228E528F4F52887075FF50E852E0D7582011224
:200C7F0015DB052EE52E24F750B70209B6E524600375230522AF828F2E8F057E00AB107CDA
:200C9F0000EB2DFDEC3EFEAB2E7C00C3EB9DEC64808EF063F08095F04003020D3AAE0F8EDB
:200CBF002F8E047D00AA117B00EA2CFCEB3DFDAA2F7B00C3EA9CEB64808DF063F08095F029
:200CDF005054C3E52E95124049AC127D00A8147900E82CFCE93DFDA82E7900C3E89CE964C5
:200CFF00808DF063F08095F05028C3E52F95134021AC137D00A8157900E82CFCE93DFDC3C0
:200D1F00EA9CEB64808DF063F08095F0500475820122052F808B052E020C9875820022AF3C
:200D3F0082E51270398F2EAE0FC3E510952E402E8E2FC3E511952F4021AD2F8DF005F074B2
:200D5F0001800225E0D5F0FBF4F528E52E244EF98705E5285DF7052F80D8052E80CB740131
:200D7F00B512398F2EAF0FC3E510952E402E8F2FC3E511952F4021AE2F8EF005F07401800F
:200D9F000225E0D5F0FBF4F528E52E2469F98706E5285EF7052F80D8052E80CB22AF82E592
:200DBF001270388F2EAE0FC3E510952E402D8E2FC3E511952F4020AD2F8DF005F07401801B
:200DDF000225E0D5F0FBF528E52E244EF98705E5284DF7052F80D9052E80CC7401B5123835
:200DFF008F2EAE0FC3E510952E402D8E2FC3E511952F4020AD2F8DF005F07401800225E08E
:200E1F00D5F0FBF528E52E2469F98705E5284DF7052F80D9052E80CC7402B512388F2EAE74
:200E3F000FC3E510952E402D8E2FC3E511952F4020AD2F8DF005F07401800225E0D5F0FBF8
:200E5F00F528E52E2457F98705E5284DF7052F80D9052E80CC7403B512388F2EAF0FC3E54D
:200E7F0010952E402D8F2FC3E511952F4020AE2F8EF005F07401800225E0D5F0FBF528E56A
:200E9F002E2460F98706E5284EF7052F80D9052E80CC22AF82E510701EAE0F8EF005F07423
:200EBF0001800225E0D5F0FBF528EF244EF9E75528F53B853B82227401B5101EAE0F8EF0C9
:200EDF0005F07401800225E0D5F0FBF528EF2469F9E75528F53B853B82227402B5101EAEB1
:200EFF000F8EF005F07401800225E0D5F0FBF528EF2457F9E75528F53B853B82227403B5F1
:200F1F00101EAE0F8EF005F07401800225E0D5F0FBF528EF2460F9E75528F53B853B822217
:200F3F0075820022753C02121512750B0375820212153D90181D75F0801214E7AF3C743067
:200F5F002FF58212149690182575F0801214E7750B0475820312153D90182C75F080121490
:200F7F00E7750B0475820412153D90183675F0801214E7750B0475820512153D9018407577
:200F9F00F0801214E7E524600302127DE53C253C2445F98739098738750B37758203121574
:200FBF003DAF3874302FF582121496750B3775820412153DAF3974302FF582121496750B64
:200FDF004675820512153DE53C244BF987077E00750F0A8E108F828E83121745AE82743027
:200FFF002EF582121496E53C244BF987077E00750F0A8E108F828E8312170FAE8274302E54
:20101F00F5821214961212A6AE82AF83EEF52970030210DF90000A1212F21212A6AE82AF89
:20103F0083AC297D00ECB50606EDB5070280030210DF8539378538367403B52915E5387011
:20105F0004FEFF8009AD381DEDFE3395E0FF8E3680547404B52916C3E538940792034004FB
:20107F00AF388005E538FE04FF8F3680397407B5291BE53924FE920340067E017F00800933
:20109F00AD391DEDFE3395E0FF8E3780197408B52914C3E539940892034004AF398005E528
:2010BF0039FE04FF8F37853739853638E53C253C2445F8A639E53C253C2445FF04F8A638A3
:2010DF0020A12390000A1212F220A11AE53C253C2445F8A639E53C253C2445FF04F8A638FC
:2010FF0075230302127D30A0030211EA90000A1212F230A0030211EA85380F751003853943
:20111F0082120EB2E5826027E4F521F522D2B7121319C2B71213190521E4B521020522C313
:20113F00E521940BE5226480948240E1020FA485380F853910853811751203853982120DC3
:20115F00BC85380F751000853982120EB2E582703DF521F522D2B7121319C2B7121319058D
:20117F0021E4B521020522C3E521940BE5226480948240E1E53C253C2445F8A639E53C25BA
:20119F003C2445FF04F8A63875230302127DE4F521F522D2B7121327C2B71213270521E4D1
:2011BF00B521020522C3E521944CE5226480948240E1E53C244BF907E7E53C244BF98707B8
:2011DF00BF11004006853C2402127D752E01752800E539B52E13AF388FF005F074018002BD
:2011FF0025E0D5F0FBF5288003752800E52E2460F98707E5284FF50E852E0D758203121570
:20121F00DB052EE52E24F750C59000641212F2752E01752800E52EB53913AF388FF005F0A4
:20123F007401800225E0D5F0FBF5288003752800E52E244EF98707E52E2460F9E75F42284A
:20125F00E528F4F52887075FF50E852E0D7582031215DB052EE52E24F750B7020FA4E5247F
:20127F00600375230522121512750B0D75820312153D90184C75F0801214E7AF2474302F7D
:07129F00F58212149680FE97
:2017810050726573732062757431006275743420746F20737461727400506C617965723131
:2017A100206973207265616479005761697420666F7220706C617965723100506C61796522
:2017C1007232206973207265616479005761697420666F7220706C617965723200506C613B
:2017E100796572312073657474696E67200073657474696E67200073657420726F773A20ED
:201801000073657420636F6C3A2000506C61796572322073657474696E672000506C617950
:2018210065722000207475726E20006E6F7720726F773A20006E6F7720636F6C3A20006E07
:1C1841006F772073636F72653A200057696E6E657220697320706C6179657200F3
:2012A600D2A3D2A2D2A5D2A4C2A7D2A620A5049000012220A4049000022220A3049000031F
:2012C6002220A20490000422D2A7C2A620A5049000052220A4049000062220A3049000072B
:0C12E6002220A2049000082290000022A8
:2012F200AD82BD0003BDFF0A7E037FAADFFEDEFADDF6AC83BC0001227D007E037FAADFFEE3
:20131200DEFADDF6DCF2227E0A7F13DFFEDEFA7F0DDFFE22227E0A7F11DFFEDEFA7F09DF70
:03133200FE222276
:20133500D281D280121422C281121422C28022C281D280121422D281021422A2049281D2C9
:2013550080121422C280021422D280121422A28192D7C280121422A2D722AF827E008F05A8
:20137500ED2DFFA2D79281D280C007C006121422C280121422D006D0070EBE080040DF0260
:20139500135E7F00D2817E008F05ED2DFDD280C006C005121422D005D006A281E4334DFF76
:2013B500C280C007C006121422D006D0070EBE080040D58F8222AF82C007121335D0078F80
:2013D5008212136F85088212136F85098212136F021344AF82C007121335D0078F82C00741
:2013F50012136F850A8212136F121344121335D00774014FF58212136F121397AF82D20473
:12141500C007121350121344D0078F82227F05DFFE2293
:201427007582A812156D75823F12156D7582D312156D75820012156D75824012156D7582FD
:20144700A112156D7582C812156D7582DA12156D75821212156D75828112156D75827F1267
:20146700156D7582A412156D7582A612156D7582D512156D75828012156D75828D12156D00
:2014870075821412156D7582AF12156D021512AF82BF0A01227E00EF24E0F50FEE34FFF59B
:2014A70010900005121660AE82AF837D008D037C00EB2EFBEC3FFCEB245DF582EC3418F5C2
:2014C70083E493F582C007C006C005121579D005D006D0070DBD050040D3758200021579B7
:2014E700AD82AE83AFF08D828E838FF01216F3FC60188C820DBD00010EC007C006C005126D
:201507001496D005D006D00780DC227F00750B008F82C00712153DD0077E00758200C007CC
:20152700C006121579D006D0070EBE800040EC0FBF080040D822AF82AE0B74022EF50BAECD
:201547000B740F5EF582C007C00612156DD006EEC4540FFE74104EF58212156DD00774B03F
:1E1567004FF58202156D8582097508007582780213CB8582097508407582780213CB24
:20185D00000000000000002F00000007000700147F147F14242A7F2A122313086462364968
:20187D005522500005030000001C2241000041221C0014083E081408083E08080000A060AA
:20189D00000808080808006060000020100804023E5149453E00427F400042615149462105
:2018BD0041454B311814127F1027454545393C4A4949300171090503364949493606494963
:2018DD00291E003636000000563600000814224100141414141400412214080201510906E7
:2018FD00324959513E7C1211127C7F494949363E414141227F4141221C7F494949417F0926
:20191D000909013E4149497A7F0808087F00417F41002040413F017F081422417F404040D7
:20193D00407F020C027F7F0408107F3E4141413E7F090909063E4151215E7F09192946469E
:20195D004949493101017F01013F4040403F1F2040201F3F4038403F631408146307087034
:20197D0008076151494543007F41410055AA55AA550041417F000402010204404040404016
:20199D00000305000020545454787F484444383844444420384444487F3854545418087E8A
:2019BD0009010218A4A4A47C7F0804047800447D40004080847D007F1028440000417F40BA
:2019DD00007C041804787C080404783844444438FC2424241818242418FC7C0804040848C6
:2019FD0054545420043F4440203C4040207C1C2040201C3C4030403C44281028441CA0A04B
:1B1A1D00A07C4464544C4400107C82000000FF000000827C10000006090906CD
:20158500AF827E00C284EF23540124FF92828F05ED2DFFD2840EBE080040E97F00C284E509
:2015A5000F23540124FF9282E50F25E0F50FD2840FBF080040E722AF82C2837E01850C0F61
:2015C5008F82C007C006121585D006D0070EEE24FB50EAD28322AF82C2837E04C3EF9E50AB
:2015E50014750F00758200C007C006121585D006D0071E80E7850E0F850D82C007121585C3
:20160500D0071FEF6010750F00758200C007121585D0071F80EDD28322750C0175820C1211
:2016250015BC750C0075820F1215BC750C007582091215BC750C0775820B1215BC750C0018
:1B16450075820A1215BC7F01750C008F82C0071215BCD0070FEF24F750EE229A
:06003500E478FFF6D8FD9F
:200013007900E94400601B7A00901A38780175A000E493F2A308B8000205A0D9F4DAF27541
:02003300A0FF2C
:1D166000E582850FF0A4C582C0F08510F0A4D0F025F0C583850FF0A42583F5832237
:20167D00E50F451060467A01E50F25E0F50FE510334012F510E582950FE583951040030A02
:20169D0080E6C3E51013F510E50F13F50FC3E582950FF5F0E58395104005F58385F082C3B5
:0D16BD00E51013F510E50F13F50FDAE1222B
:20003B007800E84400600A790175A000E4F309D8FC7800E84400600C7900900001E4F0A3C3
:04005B00D8FCD9FAFA
:2016CA007A10E4FBFCE58225E0F582E58333F583EB33FBEC33FCEB950FF5F0EC9510400626
:0916EA00FCABF0438201DADD22C1
:0D00060075817112177DE582600302000311
:1C16F30020F71430F6148883A88220F507E6A88375830022E280F7E49322E02206
:20170F00C2D5E58330E70DD2D5E4C39582F582E49583F583E51030E70BE4C3950FF50FE4FD
:16172F009510F51012167D30D50BE4C39582F582E49583F583227A
:20174500C2D5E58330E70DD2D5E4C39582F582E49583F583E51030E70DB2D5E4C3950FF531
:181765000FE49510F5101216CA30D50BE4C39582F582E49583F5832202
:04177D00758200224F
:00000001FF
